{
  "_format": "hh-sol-artifact-1",
  "contractName": "Stolid",
  "sourceName": "contracts/Stolid.sol",
  "abi": [
    {
      "inputs": [],
      "stateMutability": "nonpayable",
      "type": "constructor"
    },
    {
      "anonymous": false,
      "inputs": [
        {
          "indexed": true,
          "internalType": "address",
          "name": "creator",
          "type": "address"
        },
        {
          "indexed": false,
          "internalType": "string",
          "name": "caseId",
          "type": "string"
        },
        {
          "indexed": false,
          "internalType": "uint256",
          "name": "time",
          "type": "uint256"
        }
      ],
      "name": "CaseCreated",
      "type": "event"
    },
    {
      "anonymous": false,
      "inputs": [
        {
          "indexed": true,
          "internalType": "address",
          "name": "judge",
          "type": "address"
        },
        {
          "indexed": false,
          "internalType": "string",
          "name": "caseId",
          "type": "string"
        },
        {
          "indexed": false,
          "internalType": "uint256",
          "name": "time",
          "type": "uint256"
        }
      ],
      "name": "CaseEnded",
      "type": "event"
    },
    {
      "anonymous": false,
      "inputs": [
        {
          "indexed": false,
          "internalType": "address",
          "name": "account",
          "type": "address"
        }
      ],
      "name": "Paused",
      "type": "event"
    },
    {
      "anonymous": false,
      "inputs": [
        {
          "indexed": false,
          "internalType": "address",
          "name": "account",
          "type": "address"
        }
      ],
      "name": "Unpaused",
      "type": "event"
    },
    {
      "inputs": [
        {
          "internalType": "string[]",
          "name": "_exhibit",
          "type": "string[]"
        },
        {
          "internalType": "uint256",
          "name": "_id",
          "type": "uint256"
        }
      ],
      "name": "addExhibits",
      "outputs": [],
      "stateMutability": "nonpayable",
      "type": "function"
    },
    {
      "inputs": [
        {
          "internalType": "address",
          "name": "newRegistrar",
          "type": "address"
        }
      ],
      "name": "addRegistrar",
      "outputs": [],
      "stateMutability": "nonpayable",
      "type": "function"
    },
    {
      "inputs": [
        {
          "internalType": "uint256",
          "name": "",
          "type": "uint256"
        }
      ],
      "name": "allCaseFiles",
      "outputs": [
        {
          "internalType": "uint256",
          "name": "id",
          "type": "uint256"
        },
        {
          "internalType": "string",
          "name": "caseId",
          "type": "string"
        },
        {
          "internalType": "string",
          "name": "fileHash",
          "type": "string"
        },
        {
          "internalType": "address",
          "name": "judge",
          "type": "address"
        },
        {
          "internalType": "address",
          "name": "clerk",
          "type": "address"
        },
        {
          "internalType": "bool",
          "name": "active",
          "type": "bool"
        }
      ],
      "stateMutability": "view",
      "type": "function"
    },
    {
      "inputs": [],
      "name": "caseAssignedToClerk",
      "outputs": [
        {
          "components": [
            {
              "internalType": "uint256",
              "name": "id",
              "type": "uint256"
            },
            {
              "internalType": "string",
              "name": "caseId",
              "type": "string"
            },
            {
              "internalType": "string",
              "name": "fileHash",
              "type": "string"
            },
            {
              "internalType": "address",
              "name": "judge",
              "type": "address"
            },
            {
              "internalType": "address",
              "name": "clerk",
              "type": "address"
            },
            {
              "internalType": "bool",
              "name": "active",
              "type": "bool"
            },
            {
              "internalType": "string[]",
              "name": "caseExhibits",
              "type": "string[]"
            }
          ],
          "internalType": "struct Stolid.CaseFile[]",
          "name": "",
          "type": "tuple[]"
        }
      ],
      "stateMutability": "view",
      "type": "function"
    },
    {
      "inputs": [],
      "name": "caseAssignedToJudge",
      "outputs": [
        {
          "components": [
            {
              "internalType": "uint256",
              "name": "id",
              "type": "uint256"
            },
            {
              "internalType": "string",
              "name": "caseId",
              "type": "string"
            },
            {
              "internalType": "string",
              "name": "fileHash",
              "type": "string"
            },
            {
              "internalType": "address",
              "name": "judge",
              "type": "address"
            },
            {
              "internalType": "address",
              "name": "clerk",
              "type": "address"
            },
            {
              "internalType": "bool",
              "name": "active",
              "type": "bool"
            },
            {
              "internalType": "string[]",
              "name": "caseExhibits",
              "type": "string[]"
            }
          ],
          "internalType": "struct Stolid.CaseFile[]",
          "name": "",
          "type": "tuple[]"
        }
      ],
      "stateMutability": "view",
      "type": "function"
    },
    {
      "inputs": [],
      "name": "chiefJustice",
      "outputs": [
        {
          "internalType": "address",
          "name": "",
          "type": "address"
        }
      ],
      "stateMutability": "view",
      "type": "function"
    },
    {
      "inputs": [],
      "name": "closedCases",
      "outputs": [
        {
          "components": [
            {
              "internalType": "uint256",
              "name": "id",
              "type": "uint256"
            },
            {
              "internalType": "string",
              "name": "caseId",
              "type": "string"
            },
            {
              "internalType": "string",
              "name": "fileHash",
              "type": "string"
            },
            {
              "internalType": "address",
              "name": "judge",
              "type": "address"
            },
            {
              "internalType": "address",
              "name": "clerk",
              "type": "address"
            },
            {
              "internalType": "bool",
              "name": "active",
              "type": "bool"
            },
            {
              "internalType": "string[]",
              "name": "caseExhibits",
              "type": "string[]"
            }
          ],
          "internalType": "struct Stolid.CaseFile[]",
          "name": "",
          "type": "tuple[]"
        }
      ],
      "stateMutability": "view",
      "type": "function"
    },
    {
      "inputs": [
        {
          "internalType": "string",
          "name": "_caseId",
          "type": "string"
        },
        {
          "internalType": "string",
          "name": "_fileHash",
          "type": "string"
        },
        {
          "internalType": "address",
          "name": "_judge",
          "type": "address"
        },
        {
          "internalType": "address",
          "name": "_clerk",
          "type": "address"
        },
        {
          "internalType": "string[]",
          "name": "_exhibits",
          "type": "string[]"
        }
      ],
      "name": "createCase",
      "outputs": [],
      "stateMutability": "nonpayable",
      "type": "function"
    },
    {
      "inputs": [
        {
          "internalType": "uint256",
          "name": "_id",
          "type": "uint256"
        }
      ],
      "name": "endCase",
      "outputs": [],
      "stateMutability": "nonpayable",
      "type": "function"
    },
    {
      "inputs": [
        {
          "internalType": "address",
          "name": "",
          "type": "address"
        }
      ],
      "name": "judges",
      "outputs": [
        {
          "internalType": "bool",
          "name": "",
          "type": "bool"
        }
      ],
      "stateMutability": "view",
      "type": "function"
    },
    {
      "inputs": [],
      "name": "pause",
      "outputs": [],
      "stateMutability": "nonpayable",
      "type": "function"
    },
    {
      "inputs": [],
      "name": "paused",
      "outputs": [
        {
          "internalType": "bool",
          "name": "",
          "type": "bool"
        }
      ],
      "stateMutability": "view",
      "type": "function"
    },
    {
      "inputs": [
        {
          "internalType": "uint256",
          "name": "_id",
          "type": "uint256"
        },
        {
          "internalType": "address",
          "name": "newJudge",
          "type": "address"
        },
        {
          "internalType": "address",
          "name": "newClerk",
          "type": "address"
        }
      ],
      "name": "reassignCase",
      "outputs": [],
      "stateMutability": "nonpayable",
      "type": "function"
    },
    {
      "inputs": [
        {
          "internalType": "address",
          "name": "",
          "type": "address"
        }
      ],
      "name": "registrars",
      "outputs": [
        {
          "internalType": "bool",
          "name": "",
          "type": "bool"
        }
      ],
      "stateMutability": "view",
      "type": "function"
    },
    {
      "inputs": [
        {
          "internalType": "address",
          "name": "newChiefJustice",
          "type": "address"
        }
      ],
      "name": "removeChiefJustice",
      "outputs": [],
      "stateMutability": "nonpayable",
      "type": "function"
    },
    {
      "inputs": [
        {
          "internalType": "address",
          "name": "_registrar",
          "type": "address"
        }
      ],
      "name": "removeRegistrar",
      "outputs": [],
      "stateMutability": "nonpayable",
      "type": "function"
    },
    {
      "inputs": [],
      "name": "unpause",
      "outputs": [],
      "stateMutability": "nonpayable",
      "type": "function"
    },
    {
      "inputs": [
        {
          "internalType": "uint256",
          "name": "_id",
          "type": "uint256"
        },
        {
          "internalType": "string",
          "name": "_filehash",
          "type": "string"
        }
      ],
      "name": "updateCase",
      "outputs": [],
      "stateMutability": "nonpayable",
      "type": "function"
    }
  ],
  "bytecode": "0x608060405234801561001057600080fd5b5060008060006101000a81548160ff02191690831515021790555033600260006101000a81548173ffffffffffffffffffffffffffffffffffffffff021916908373ffffffffffffffffffffffffffffffffffffffff1602179055506137938061007b6000396000f3fe608060405234801561001057600080fd5b50600436106101165760003560e01c80638456cb59116100a2578063af92a69311610071578063af92a693146102aa578063ba904eed146102c6578063c8ba108e146102e2578063ce684b33146102fe578063da21ad8b1461031c57610116565b80638456cb591461023857806384f64f0f1461024257806389aeca761461025e578063ae0d1be91461028e57610116565b806342c179dd116100e957806342c179dd1461017b5780635c975abb146101995780636736799a146101b75780637124b817146101d35780638422a2f21461020857610116565b80632758308f1461011b5780633d7407c9146101375780633e54141a146101535780633f4ba83a14610171575b600080fd5b610135600480360381019061013091906127c3565b61033a565b005b610151600480360381019061014c919061292f565b610416565b005b61015b61055d565b6040516101689190612e76565b60405180910390f35b610179610a2a565b005b610183610ac4565b6040516101909190612e76565b60405180910390f35b6101a1610f1a565b6040516101ae9190612e98565b60405180910390f35b6101d160048036038101906101cc91906127ec565b610f30565b005b6101ed60048036038101906101e89190612906565b61116d565b6040516101ff96959493929190613073565b60405180910390f35b610222600480360381019061021d91906127c3565b611306565b60405161022f9190612e98565b60405180910390f35b610240611326565b005b61025c60048036038101906102579190612844565b6113c0565b005b610278600480360381019061027391906127c3565b611861565b6040516102859190612e98565b60405180910390f35b6102a860048036038101906102a39190612906565b611881565b005b6102c460048036038101906102bf91906127c3565b611a27565b005b6102e060048036038101906102db91906127c3565b611b1a565b005b6102fc60048036038101906102f7919061297e565b611c0d565b005b610306611db7565b6040516103139190612e76565b60405180910390f35b610324612284565b6040516103319190612e5b565b60405180910390f35b6103426122aa565b600260009054906101000a900473ffffffffffffffffffffffffffffffffffffffff1673ffffffffffffffffffffffffffffffffffffffff163373ffffffffffffffffffffffffffffffffffffffff16146103d2576040517f08c379a00000000000000000000000000000000000000000000000000000000081526004016103c990613033565b60405180910390fd5b80600260006101000a81548173ffffffffffffffffffffffffffffffffffffffff021916908373ffffffffffffffffffffffffffffffffffffffff16021790555050565b61041e6122aa565b600260009054906101000a900473ffffffffffffffffffffffffffffffffffffffff1673ffffffffffffffffffffffffffffffffffffffff163373ffffffffffffffffffffffffffffffffffffffff16146104ae576040517f08c379a00000000000000000000000000000000000000000000000000000000081526004016104a590613033565b60405180910390fd5b816004600085815260200190815260200160002060030160006101000a81548173ffffffffffffffffffffffffffffffffffffffff021916908373ffffffffffffffffffffffffffffffffffffffff160217905550806004600085815260200190815260200160002060040160006101000a81548173ffffffffffffffffffffffffffffffffffffffff021916908373ffffffffffffffffffffffffffffffffffffffff160217905550505050565b606060008060015467ffffffffffffffff8111156105a4577f4e487b7100000000000000000000000000000000000000000000000000000000600052604160045260246000fd5b6040519080825280602002602001820160405280156105dd57816020015b6105ca612409565b8152602001906001900390816105c25790505b50905060005b600154811015610a21576001151560046000600184610602919061326f565b815260200190815260200160002060040160149054906101000a900460ff1615151415610a0e573373ffffffffffffffffffffffffffffffffffffffff1660046000600184610651919061326f565b815260200190815260200160002060030160009054906101000a900473ffffffffffffffffffffffffffffffffffffffff1673ffffffffffffffffffffffffffffffffffffffff161415610a0d576000600460006001846106b2919061326f565b81526020019081526020016000206000015490506000600460008381526020019081526020016000209050806040518060e00160405290816000820154815260200160018201805461070390613364565b80601f016020809104026020016040519081016040528092919081815260200182805461072f90613364565b801561077c5780601f106107515761010080835404028352916020019161077c565b820191906000526020600020905b81548152906001019060200180831161075f57829003601f168201915b5050505050815260200160028201805461079590613364565b80601f01602080910402602001604051908101604052809291908181526020018280546107c190613364565b801561080e5780601f106107e35761010080835404028352916020019161080e565b820191906000526020600020905b8154815290600101906020018083116107f157829003601f168201915b505050505081526020016003820160009054906101000a900473ffffffffffffffffffffffffffffffffffffffff1673ffffffffffffffffffffffffffffffffffffffff1673ffffffffffffffffffffffffffffffffffffffff1681526020016004820160009054906101000a900473ffffffffffffffffffffffffffffffffffffffff1673ffffffffffffffffffffffffffffffffffffffff1673ffffffffffffffffffffffffffffffffffffffff1681526020016004820160149054906101000a900460ff1615151515815260200160058201805480602002602001604051908101604052809291908181526020016000905b828210156109af57838290600052602060002001805461092290613364565b80601f016020809104026020016040519081016040528092919081815260200182805461094e90613364565b801561099b5780601f106109705761010080835404028352916020019161099b565b820191906000526020600020905b81548152906001019060200180831161097e57829003601f168201915b505050505081526020019060010190610903565b50505050815250508486815181106109f0577f4e487b7100000000000000000000000000000000000000000000000000000000600052603260045260246000fd5b6020026020010181905250600185610a08919061326f565b945050505b5b8080610a19906133c7565b9150506105e3565b50809250505090565b600260009054906101000a900473ffffffffffffffffffffffffffffffffffffffff1673ffffffffffffffffffffffffffffffffffffffff163373ffffffffffffffffffffffffffffffffffffffff1614610aba576040517f08c379a0000000000000000000000000000000000000000000000000000000008152600401610ab190613033565b60405180910390fd5b610ac26122f4565b565b606060008060015467ffffffffffffffff811115610b0b577f4e487b7100000000000000000000000000000000000000000000000000000000600052604160045260246000fd5b604051908082528060200260200182016040528015610b4457816020015b610b31612409565b815260200190600190039081610b295790505b50905060005b600154811015610f11576000151560046000600184610b69919061326f565b815260200190815260200160002060040160149054906101000a900460ff1615151415610efe57600060046000600184610ba3919061326f565b81526020019081526020016000206000015490506000600460008381526020019081526020016000209050806040518060e001604052908160008201548152602001600182018054610bf490613364565b80601f0160208091040260200160405190810160405280929190818152602001828054610c2090613364565b8015610c6d5780601f10610c4257610100808354040283529160200191610c6d565b820191906000526020600020905b815481529060010190602001808311610c5057829003601f168201915b50505050508152602001600282018054610c8690613364565b80601f0160208091040260200160405190810160405280929190818152602001828054610cb290613364565b8015610cff5780601f10610cd457610100808354040283529160200191610cff565b820191906000526020600020905b815481529060010190602001808311610ce257829003601f168201915b505050505081526020016003820160009054906101000a900473ffffffffffffffffffffffffffffffffffffffff1673ffffffffffffffffffffffffffffffffffffffff1673ffffffffffffffffffffffffffffffffffffffff1681526020016004820160009054906101000a900473ffffffffffffffffffffffffffffffffffffffff1673ffffffffffffffffffffffffffffffffffffffff1673ffffffffffffffffffffffffffffffffffffffff1681526020016004820160149054906101000a900460ff1615151515815260200160058201805480602002602001604051908101604052809291908181526020016000905b82821015610ea0578382906000526020600020018054610e1390613364565b80601f0160208091040260200160405190810160405280929190818152602001828054610e3f90613364565b8015610e8c5780601f10610e6157610100808354040283529160200191610e8c565b820191906000526020600020905b815481529060010190602001808311610e6f57829003601f168201915b505050505081526020019060010190610df4565b5050505081525050848681518110610ee1577f4e487b7100000000000000000000000000000000000000000000000000000000600052603260045260246000fd5b6020026020010181905250600185610ef9919061326f565b945050505b8080610f09906133c7565b915050610b4a565b50809250505090565b60008060009054906101000a900460ff16905090565b610f386122aa565b6004600082815260200190815260200160002060040160149054906101000a900460ff16610f9b576040517f08c379a0000000000000000000000000000000000000000000000000000000008152600401610f9290612fb3565b60405180910390fd5b6004600082815260200190815260200160002060030160009054906101000a900473ffffffffffffffffffffffffffffffffffffffff1673ffffffffffffffffffffffffffffffffffffffff163373ffffffffffffffffffffffffffffffffffffffff16148061106c57506004600082815260200190815260200160002060040160009054906101000a900473ffffffffffffffffffffffffffffffffffffffff1673ffffffffffffffffffffffffffffffffffffffff163373ffffffffffffffffffffffffffffffffffffffff16145b6110ab576040517f08c379a00000000000000000000000000000000000000000000000000000000081526004016110a290612f73565b60405180910390fd5b60005b838390508110156111675760046000838152602001908152602001600020600501848483818110611108577f4e487b7100000000000000000000000000000000000000000000000000000000600052603260045260246000fd5b905060200281019061111a91906130e2565b90918060018154018082558091505060019003906000526020600020016000909192909192909192909192509190611153929190612474565b50808061115f906133c7565b9150506110ae565b50505050565b600460205280600052604060002060009150905080600001549080600101805461119690613364565b80601f01602080910402602001604051908101604052809291908181526020018280546111c290613364565b801561120f5780601f106111e45761010080835404028352916020019161120f565b820191906000526020600020905b8154815290600101906020018083116111f257829003601f168201915b50505050509080600201805461122490613364565b80601f016020809104026020016040519081016040528092919081815260200182805461125090613364565b801561129d5780601f106112725761010080835404028352916020019161129d565b820191906000526020600020905b81548152906001019060200180831161128057829003601f168201915b5050505050908060030160009054906101000a900473ffffffffffffffffffffffffffffffffffffffff16908060040160009054906101000a900473ffffffffffffffffffffffffffffffffffffffff16908060040160149054906101000a900460ff16905086565b60056020528060005260406000206000915054906101000a900460ff1681565b600260009054906101000a900473ffffffffffffffffffffffffffffffffffffffff1673ffffffffffffffffffffffffffffffffffffffff163373ffffffffffffffffffffffffffffffffffffffff16146113b6576040517f08c379a00000000000000000000000000000000000000000000000000000000081526004016113ad90613033565b60405180910390fd5b6113be612356565b565b6113c86122aa565b600660003373ffffffffffffffffffffffffffffffffffffffff1673ffffffffffffffffffffffffffffffffffffffff16815260200190815260200160002060009054906101000a900460ff168061146d5750600260009054906101000a900473ffffffffffffffffffffffffffffffffffffffff1673ffffffffffffffffffffffffffffffffffffffff163373ffffffffffffffffffffffffffffffffffffffff16145b6114ac576040517f08c379a00000000000000000000000000000000000000000000000000000000081526004016114a390612fd3565b60405180910390fd5b60008651116114f0576040517f08c379a00000000000000000000000000000000000000000000000000000000081526004016114e790613053565b60405180910390fd5b6000855111611534576040517f08c379a000000000000000000000000000000000000000000000000000000000815260040161152b90612ff3565b60405180910390fd5b600073ffffffffffffffffffffffffffffffffffffffff168473ffffffffffffffffffffffffffffffffffffffff1614156115a4576040517f08c379a000000000000000000000000000000000000000000000000000000000815260040161159b90613013565b60405180910390fd5b600073ffffffffffffffffffffffffffffffffffffffff168373ffffffffffffffffffffffffffffffffffffffff161415611614576040517f08c379a000000000000000000000000000000000000000000000000000000000815260040161160b90613013565b60405180910390fd5b6000828290501161165a576040517f08c379a000000000000000000000000000000000000000000000000000000000815260040161165190612f53565b60405180910390fd5b6001600081548092919061166d906133c7565b91905055506040518060e0016040528060015481526020018781526020018681526020018573ffffffffffffffffffffffffffffffffffffffff1681526020018473ffffffffffffffffffffffffffffffffffffffff1681526020016001151581526020018383906116df919061330d565b81525060046000600154815260200190815260200160002060008201518160000155602082015181600101908051906020019061171d9291906124fa565b50604082015181600201908051906020019061173a9291906124fa565b5060608201518160030160006101000a81548173ffffffffffffffffffffffffffffffffffffffff021916908373ffffffffffffffffffffffffffffffffffffffff16021790555060808201518160040160006101000a81548173ffffffffffffffffffffffffffffffffffffffff021916908373ffffffffffffffffffffffffffffffffffffffff16021790555060a08201518160040160146101000a81548160ff02191690831515021790555060c0820151816005019080519060200190611805929190612580565b509050503373ffffffffffffffffffffffffffffffffffffffff167fe92edb5f5612b57344c122d36392c67dd83fd4478dc17f5f27b5cf70edca9cd28742604051611851929190612eb3565b60405180910390a2505050505050565b60066020528060005260406000206000915054906101000a900460ff1681565b6118896122aa565b6004600082815260200190815260200160002060040160149054906101000a900460ff166118ec576040517f08c379a00000000000000000000000000000000000000000000000000000000081526004016118e390612fb3565b60405180910390fd5b6004600082815260200190815260200160002060030160009054906101000a900473ffffffffffffffffffffffffffffffffffffffff1673ffffffffffffffffffffffffffffffffffffffff163373ffffffffffffffffffffffffffffffffffffffff1614611990576040517f08c379a000000000000000000000000000000000000000000000000000000000815260040161198790612f93565b60405180910390fd5b60006004600083815260200190815260200160002060040160146101000a81548160ff0219169083151502179055503373ffffffffffffffffffffffffffffffffffffffff167fbc6e9b7c53e3cb78a589127e0fdcb5581281560843e0a62fe0ce497121a6fa0a6004600084815260200190815260200160002060010142604051611a1c929190612ee3565b60405180910390a250565b611a2f6122aa565b600260009054906101000a900473ffffffffffffffffffffffffffffffffffffffff1673ffffffffffffffffffffffffffffffffffffffff163373ffffffffffffffffffffffffffffffffffffffff1614611abf576040517f08c379a0000000000000000000000000000000000000000000000000000000008152600401611ab690613033565b60405180910390fd5b6001600660008373ffffffffffffffffffffffffffffffffffffffff1673ffffffffffffffffffffffffffffffffffffffff16815260200190815260200160002060006101000a81548160ff02191690831515021790555050565b611b226122aa565b600260009054906101000a900473ffffffffffffffffffffffffffffffffffffffff1673ffffffffffffffffffffffffffffffffffffffff163373ffffffffffffffffffffffffffffffffffffffff1614611bb2576040517f08c379a0000000000000000000000000000000000000000000000000000000008152600401611ba990613033565b60405180910390fd5b6000600660008373ffffffffffffffffffffffffffffffffffffffff1673ffffffffffffffffffffffffffffffffffffffff16815260200190815260200160002060006101000a81548160ff02191690831515021790555050565b611c156122aa565b6004600083815260200190815260200160002060040160149054906101000a900460ff16611c78576040517f08c379a0000000000000000000000000000000000000000000000000000000008152600401611c6f90612fb3565b60405180910390fd5b6004600083815260200190815260200160002060030160009054906101000a900473ffffffffffffffffffffffffffffffffffffffff1673ffffffffffffffffffffffffffffffffffffffff163373ffffffffffffffffffffffffffffffffffffffff161480611d4957506004600083815260200190815260200160002060040160009054906101000a900473ffffffffffffffffffffffffffffffffffffffff1673ffffffffffffffffffffffffffffffffffffffff163373ffffffffffffffffffffffffffffffffffffffff16145b611d88576040517f08c379a0000000000000000000000000000000000000000000000000000000008152600401611d7f90612f73565b60405180910390fd5b80600460008481526020019081526020016000206002019080519060200190611db29291906124fa565b505050565b606060008060015467ffffffffffffffff811115611dfe577f4e487b7100000000000000000000000000000000000000000000000000000000600052604160045260246000fd5b604051908082528060200260200182016040528015611e3757816020015b611e24612409565b815260200190600190039081611e1c5790505b50905060005b60015481101561227b576001151560046000600184611e5c919061326f565b815260200190815260200160002060040160149054906101000a900460ff1615151415612268573373ffffffffffffffffffffffffffffffffffffffff1660046000600184611eab919061326f565b815260200190815260200160002060040160009054906101000a900473ffffffffffffffffffffffffffffffffffffffff1673ffffffffffffffffffffffffffffffffffffffff16141561226757600060046000600184611f0c919061326f565b81526020019081526020016000206000015490506000600460008381526020019081526020016000209050806040518060e001604052908160008201548152602001600182018054611f5d90613364565b80601f0160208091040260200160405190810160405280929190818152602001828054611f8990613364565b8015611fd65780601f10611fab57610100808354040283529160200191611fd6565b820191906000526020600020905b815481529060010190602001808311611fb957829003601f168201915b50505050508152602001600282018054611fef90613364565b80601f016020809104026020016040519081016040528092919081815260200182805461201b90613364565b80156120685780601f1061203d57610100808354040283529160200191612068565b820191906000526020600020905b81548152906001019060200180831161204b57829003601f168201915b505050505081526020016003820160009054906101000a900473ffffffffffffffffffffffffffffffffffffffff1673ffffffffffffffffffffffffffffffffffffffff1673ffffffffffffffffffffffffffffffffffffffff1681526020016004820160009054906101000a900473ffffffffffffffffffffffffffffffffffffffff1673ffffffffffffffffffffffffffffffffffffffff1673ffffffffffffffffffffffffffffffffffffffff1681526020016004820160149054906101000a900460ff1615151515815260200160058201805480602002602001604051908101604052809291908181526020016000905b8282101561220957838290600052602060002001805461217c90613364565b80601f01602080910402602001604051908101604052809291908181526020018280546121a890613364565b80156121f55780601f106121ca576101008083540402835291602001916121f5565b820191906000526020600020905b8154815290600101906020018083116121d857829003601f168201915b50505050508152602001906001019061215d565b505050508152505084868151811061224a577f4e487b7100000000000000000000000000000000000000000000000000000000600052603260045260246000fd5b6020026020010181905250600185612262919061326f565b945050505b5b8080612273906133c7565b915050611e3d565b50809250505090565b600260009054906101000a900473ffffffffffffffffffffffffffffffffffffffff1681565b6122b2610f1a565b156122f2576040517f08c379a00000000000000000000000000000000000000000000000000000000081526004016122e990612f33565b60405180910390fd5b565b6122fc6123b8565b60008060006101000a81548160ff0219169083151502179055507f5db9ee0a495bf2e6ff9c91a7834c1ba4fdd244a5e8aa4e537bd38aeae4b073aa61233f612401565b60405161234c9190612e5b565b60405180910390a1565b61235e6122aa565b60016000806101000a81548160ff0219169083151502179055507f62e78cea01bee320cd4e420270b5ea74000d11b0c9f74754ebdbfc544b05a2586123a1612401565b6040516123ae9190612e5b565b60405180910390a1565b6123c0610f1a565b6123ff576040517f08c379a00000000000000000000000000000000000000000000000000000000081526004016123f690612f13565b60405180910390fd5b565b600033905090565b6040518060e00160405280600081526020016060815260200160608152602001600073ffffffffffffffffffffffffffffffffffffffff168152602001600073ffffffffffffffffffffffffffffffffffffffff168152602001600015158152602001606081525090565b82805461248090613364565b90600052602060002090601f0160209004810192826124a257600085556124e9565b82601f106124bb57803560ff19168380011785556124e9565b828001600101855582156124e9579182015b828111156124e85782358255916020019190600101906124cd565b5b5090506124f691906125e0565b5090565b82805461250690613364565b90600052602060002090601f016020900481019282612528576000855561256f565b82601f1061254157805160ff191683800117855561256f565b8280016001018555821561256f579182015b8281111561256e578251825591602001919060010190612553565b5b50905061257c91906125e0565b5090565b8280548282559060005260206000209081019282156125cf579160200282015b828111156125ce5782518290805190602001906125be9291906124fa565b50916020019190600101906125a0565b5b5090506125dc91906125fd565b5090565b5b808211156125f95760008160009055506001016125e1565b5090565b5b8082111561261d57600081816126149190612621565b506001016125fe565b5090565b50805461262d90613364565b6000825580601f1061263f575061265e565b601f01602090049060005260206000209081019061265d91906125e0565b5b50565b600061267461266f8461315e565b613139565b9050808382526020820190508285602086028201111561269357600080fd5b60005b858110156126dd57813567ffffffffffffffff8111156126b557600080fd5b8086016126c28982612784565b85526020850194506020840193505050600181019050612696565b5050509392505050565b60006126fa6126f58461318a565b613139565b90508281526020810184848401111561271257600080fd5b61271d848285613322565b509392505050565b6000813590506127348161372f565b92915050565b60008083601f84011261274c57600080fd5b8235905067ffffffffffffffff81111561276557600080fd5b60208301915083602082028301111561277d57600080fd5b9250929050565b600082601f83011261279557600080fd5b81356127a58482602086016126e7565b91505092915050565b6000813590506127bd81613746565b92915050565b6000602082840312156127d557600080fd5b60006127e384828501612725565b91505092915050565b60008060006040848603121561280157600080fd5b600084013567ffffffffffffffff81111561281b57600080fd5b6128278682870161273a565b9350935050602061283a868287016127ae565b9150509250925092565b60008060008060008060a0878903121561285d57600080fd5b600087013567ffffffffffffffff81111561287757600080fd5b61288389828a01612784565b965050602087013567ffffffffffffffff8111156128a057600080fd5b6128ac89828a01612784565b95505060406128bd89828a01612725565b94505060606128ce89828a01612725565b935050608087013567ffffffffffffffff8111156128eb57600080fd5b6128f789828a0161273a565b92509250509295509295509295565b60006020828403121561291857600080fd5b6000612926848285016127ae565b91505092915050565b60008060006060848603121561294457600080fd5b6000612952868287016127ae565b935050602061296386828701612725565b925050604061297486828701612725565b9150509250925092565b6000806040838503121561299157600080fd5b600061299f858286016127ae565b925050602083013567ffffffffffffffff8111156129bc57600080fd5b6129c885828601612784565b9150509250929050565b60006129de8383612b20565b905092915050565b60006129f28383612d93565b905092915050565b612a03816132c5565b82525050565b612a12816132c5565b82525050565b6000612a23826131f0565b612a2d818561322b565b935083602082028501612a3f856131bb565b8060005b85811015612a7b5784840389528151612a5c85826129d2565b9450612a6783613211565b925060208a01995050600181019050612a43565b50829750879550505050505092915050565b6000612a98826131fb565b612aa2818561323c565b935083602082028501612ab4856131cb565b8060005b85811015612af05784840389528151612ad185826129e6565b9450612adc8361321e565b925060208a01995050600181019050612ab8565b50829750879550505050505092915050565b612b0b816132d7565b82525050565b612b1a816132d7565b82525050565b6000612b2b82613206565b612b35818561324d565b9350612b45818560208601613331565b612b4e8161349d565b840191505092915050565b6000612b6482613206565b612b6e818561325e565b9350612b7e818560208601613331565b612b878161349d565b840191505092915050565b60008154612b9f81613364565b612ba9818661325e565b94506001821660008114612bc45760018114612bd657612c09565b60ff1983168652602086019350612c09565b612bdf856131db565b60005b83811015612c0157815481890152600182019150602081019050612be2565b808801955050505b50505092915050565b6000612c1f60148361325e565b9150612c2a826134ae565b602082019050919050565b6000612c4260108361325e565b9150612c4d826134d7565b602082019050919050565b6000612c6560198361325e565b9150612c7082613500565b602082019050919050565b6000612c88602d8361325e565b9150612c9382613529565b604082019050919050565b6000612cab60228361325e565b9150612cb682613578565b604082019050919050565b6000612cce60238361325e565b9150612cd9826135c7565b604082019050919050565b6000612cf160338361325e565b9150612cfc82613616565b604082019050919050565b6000612d14600c8361325e565b9150612d1f82613665565b602082019050919050565b6000612d3760188361325e565b9150612d428261368e565b602082019050919050565b6000612d5a60238361325e565b9150612d65826136b7565b604082019050919050565b6000612d7d600f8361325e565b9150612d8882613706565b602082019050919050565b600060e083016000830151612dab6000860182612e3d565b5060208301518482036020860152612dc38282612b20565b91505060408301518482036040860152612ddd8282612b20565b9150506060830151612df260608601826129fa565b506080830151612e0560808601826129fa565b5060a0830151612e1860a0860182612b02565b5060c083015184820360c0860152612e308282612a18565b9150508091505092915050565b612e4681613303565b82525050565b612e5581613303565b82525050565b6000602082019050612e706000830184612a09565b92915050565b60006020820190508181036000830152612e908184612a8d565b905092915050565b6000602082019050612ead6000830184612b11565b92915050565b60006040820190508181036000830152612ecd8185612b59565b9050612edc6020830184612e4c565b9392505050565b60006040820190508181036000830152612efd8185612b92565b9050612f0c6020830184612e4c565b9392505050565b60006020820190508181036000830152612f2c81612c12565b9050919050565b60006020820190508181036000830152612f4c81612c35565b9050919050565b60006020820190508181036000830152612f6c81612c58565b9050919050565b60006020820190508181036000830152612f8c81612c7b565b9050919050565b60006020820190508181036000830152612fac81612c9e565b9050919050565b60006020820190508181036000830152612fcc81612cc1565b9050919050565b60006020820190508181036000830152612fec81612ce4565b9050919050565b6000602082019050818103600083015261300c81612d07565b9050919050565b6000602082019050818103600083015261302c81612d2a565b9050919050565b6000602082019050818103600083015261304c81612d4d565b9050919050565b6000602082019050818103600083015261306c81612d70565b9050919050565b600060c0820190506130886000830189612e4c565b818103602083015261309a8188612b59565b905081810360408301526130ae8187612b59565b90506130bd6060830186612a09565b6130ca6080830185612a09565b6130d760a0830184612b11565b979650505050505050565b600080833560016020038436030381126130fb57600080fd5b80840192508235915067ffffffffffffffff82111561311957600080fd5b60208301925060018202360383131561313157600080fd5b509250929050565b6000613143613154565b905061314f8282613396565b919050565b6000604051905090565b600067ffffffffffffffff8211156131795761317861346e565b5b602082029050602081019050919050565b600067ffffffffffffffff8211156131a5576131a461346e565b5b6131ae8261349d565b9050602081019050919050565b6000819050602082019050919050565b6000819050602082019050919050565b60008190508160005260206000209050919050565b600081519050919050565b600081519050919050565b600081519050919050565b6000602082019050919050565b6000602082019050919050565b600082825260208201905092915050565b600082825260208201905092915050565b600082825260208201905092915050565b600082825260208201905092915050565b600061327a82613303565b915061328583613303565b9250827fffffffffffffffffffffffffffffffffffffffffffffffffffffffffffffffff038211156132ba576132b9613410565b5b828201905092915050565b60006132d0826132e3565b9050919050565b60008115159050919050565b600073ffffffffffffffffffffffffffffffffffffffff82169050919050565b6000819050919050565b600061331a368484612661565b905092915050565b82818337600083830152505050565b60005b8381101561334f578082015181840152602081019050613334565b8381111561335e576000848401525b50505050565b6000600282049050600182168061337c57607f821691505b602082108114156133905761338f61343f565b5b50919050565b61339f8261349d565b810181811067ffffffffffffffff821117156133be576133bd61346e565b5b80604052505050565b60006133d282613303565b91507fffffffffffffffffffffffffffffffffffffffffffffffffffffffffffffffff82141561340557613404613410565b5b600182019050919050565b7f4e487b7100000000000000000000000000000000000000000000000000000000600052601160045260246000fd5b7f4e487b7100000000000000000000000000000000000000000000000000000000600052602260045260246000fd5b7f4e487b7100000000000000000000000000000000000000000000000000000000600052604160045260246000fd5b6000601f19601f8301169050919050565b7f5061757361626c653a206e6f7420706175736564000000000000000000000000600082015250565b7f5061757361626c653a2070617573656400000000000000000000000000000000600082015250565b7f20706c6561736520617474616368206578686962697428732900000000000000600082015250565b7f6f6e6c792061737369676e6564206a75646765206f7220636c65726b2063616e60008201527f2061646420657868696269747300000000000000000000000000000000000000602082015250565b7f6f6e6c792061737369676e6564206a756467652063616e20636c6f736520636160008201527f7365000000000000000000000000000000000000000000000000000000000000602082015250565b7f796f752063616e6e6f74206d616e6970756c617465206120636c6f736564206360008201527f6173650000000000000000000000000000000000000000000000000000000000602082015250565b7f6f6e6c79205265676973747261727320616e64206368696566204a757374696360008201527f65732063616e206372656174652066696c657300000000000000000000000000602082015250565b7f696e76616c69642046496c650000000000000000000000000000000000000000600082015250565b7f696e76616c696420636f6e747261637420616464726573730000000000000000600082015250565b7f4f6e6c7920546865204368696566204a7573746963652048617665204163636560008201527f7373210000000000000000000000000000000000000000000000000000000000602082015250565b7f696e76616c696420636173652049440000000000000000000000000000000000600082015250565b613738816132c5565b811461374357600080fd5b50565b61374f81613303565b811461375a57600080fd5b5056fea2646970667358221220462543855d972479343d8621b77af7565139ac6eb76ffef0f96514c783bd473564736f6c63430008040033",
  "linkReferences": {},
  "deployedLinkReferences": {}
}